:020000040800F2
:1000000000000520DD020008C9720008CD7200085A
:10001000D1720008D5720008D972000800000000F3
:10002000000000000000000000000000DD72000879
:10003000E172000800000000E5720008E9720008A3
:100040006D5F00086D5F00086D5F00086D5F000860
:100050006D5F00086D5F00086D5F00086D5F000850
:100060006D5F00086D5F00086D5F00086D5F000840
:100070006D5F00086D5F00086D5F00086D5F000830
:100080006D5F00086D5F00086D5F00086D5F000820
:100090006D5F00086D5F00086D5F00086D5F000810
:1000A0006D5F00086D5F00086D5F00086D5F000800
:1000B0006D5F00086D5F00086D5F00086D5F0008F0
:1000C0006D5F00086D5F00086D5F00086D5F0008E0
:1000D0006D5F00086D5F00086D5F00086D5F0008D0
:1000E0006D5F00086D5F00086D5F00086D5F0008C0
:1000F0006D5F00086D5F00086D5F00086D5F0008B0
:100100006D5F00086D5F00086D5F00086D5F00089F
:100110006D5F00086D5F00086D5F00086D5F00088F
:100120006D5F0008F17200086D5F00086D5F0008E8
:100130006D5F00086D5F00086D5F00086D5F00086F
:100140006D5F00086D5F00086D5F00086D5F00085F
:100150006D5F00086D5F00086D5F00086D5F00084F
:100160006D5F00086D5F00086D5F00086D5F00083F
:100170006D5F00086D5F0008F97200080000000064
:100180006D5F00086D5F00086D5F00086D5F00081F
:100190006D5F00086D5F00086D5F00086D5F00080F
:1001A0006D5F00086D5F00086D5F00086D5F0008FF
:1001B0006D5F00086D5F00086D5F00086D5F0008EF
:1001C0006D5F00086D5F000800B583B005F03EFE6E
:1001D000304B314A1360314A1360314B314A03E0EE
:1001E00011681960043304322F498B42F8D32A4B2B
:1001F0001A682E4B9A4204D1284B1A682C4B9A420B
:1002000000D0FEE7234B2B4A13602B4A13602B4B85
:1002100002E000221A600433294A9342F9D3254BA5
:100220001B6813B9244B1B6803B1FEE705F012FEEF
:10023000694601A805F0B4FD224C234B1C1BA410F9
:10024000002504E01F4B53F8253098470135AC4298
:10025000F8DC1E4C1E4B1C1BA410002504E01B4B9D
:1002600053F8253098470135AC42F8DC00990198E5
:1002700006F09CFF0546174C174B1C1BA41004E00E
:10028000013C144B53F824309847002CF8DC2846E6
:1002900005F062FDBABADECA000000208C00002022
:1002A00000000020F89B00089000002078563412CF
:1002B0003254769890000020940400209000002092
:1002C00098040020340400083404000834040008B2
:1002D00034040008340400083404000808B5FFF7AB
:1002E00073FF00BF00BEFEE71EF0040F0CBFEFF36C
:1002F0000880EFF309807146414A10472DE9F0412B
:1003000082B004468846134B5E6B9F6B9D6A1B6BE5
:1003100013F0020F0DD00F4BDB6A002B09DA4BF6FE
:10032000AB6105F013FE20B14FF00042094BDA62D9
:100330000CE0094805F03CFDCDF800803B46324614
:100340002946204605F08AFD00BEFEE702B0BDE862
:10035000F08100BF00ED00E02C7D000800BEFEE74C
:100360001EF0040F0CBFEFF30880EFF30980714615
:10037000244A10472DE9F04182B004468846084BD4
:100380005E6B9F6B9D6A074805F012FDCDF80080FB
:100390003B4632462946204605F060FD00BEFEE79A
:1003A00000ED00E03C7D00081EF0040F0CBFEFF3F1
:1003B0000880EFF309807146134A10472DE9F04198
:1003C00082B004468846084B5E6B9F6B9D6A074867
:1003D00005F0EEFCCDF800803B463246294620462B
:1003E00005F03CFD00BEFEE700ED00E0487D0008A2
:1003F00000BEFEE700BEFEE700BEFEE7704700005D
:0C040000FD02000875030008BD030008A1
:10040C00F89B00080000002090000020F89B0008DA
:10041C000000001000000010900000209804002044
:08042C000000001000000010A8
:1004400010B5044605F020F8064BA3FB00308009E8
:1004500000F086F8002221464FF0FF3000F044F80B
:10046000002010BDD34D621008B5074A136843F44D
:1004700000731360032000F025F80F20FFF7E0FF62
:1004800004F00EFC002008BD003C0240024A136844
:1004900001331360704700BF94000020014B1868BF
:1004A000704700BF9400002010B582B00190FFF7A4
:1004B000F5FF0446FFF7F2FF001B019B9842F9D3BA
:1004C00002B010BD064AD36823F4E0631B041B0C82
:1004D000000200F4E0601843024B0343D36070470E
:1004E00000ED00E00000FA0530B4144BDB68C3F304
:1004F0000223C3F10704042C28BF04241D1D062D6C
:1005000001D9DD1E00E00025012303FA04F4013CBB
:100510002140A940AB40013B1A400A43002806DABB
:1005200000F00F001201D2B2054B1A5403E0120181
:10053000D2B2044B1A5430BC704700BF00ED00E04B
:1005400014ED00E000E400E0420900F01F00012388
:1005500003FA00F0014B43F82200704700E100E08D
:100560000138B0F1807F0AD2064B5860F021064A6C
:1005700082F823100020986007221A60704701203B
:10058000704700BF10E000E000ED00E0704700BFE2
:1005900030B583B090F83440012C45D0012480F868
:1005A0003440022480F8354005682C6824F00204A9
:1005B0002C600468256829432160816C1C4CCC6345
:1005C000816C1C4C8C64B3F5803F05D201682831E6
:1005D000806C01F02DF920E0816C154C4C640121F8
:1005E0008163C363426405E0C36B5B08C363836BD1
:1005F0005B008363C36BB3F5803FF5D2836B023B33
:100600008363836B0364C36B0168C46B806C009469
:1006100002EB8303283103F0BFFC074A136843F061
:1006200001031360002000E0022003B030BD00BFD2
:100630004D0600083D0600080000055008B5806B17
:10064000012380F8353005F0B5FF08BD10B5846B87
:10065000012384F83530A36B1BB3A06C02681368C8
:1006600003F40023A16B11F0010F0BD153B1D36838
:10067000E16B002203EBC10103F0D8FCA36B013B4B
:10068000A36322E0136813F4002F1ED11369E16BFA
:10069000012203EBC10103F0C9FCA36B013BA3637F
:1006A00013E0A36C1B681A6812F4002F02D0626C6E
:1006B000DA600AE01A6812F4002F06D1626CE16B6E
:1006C00002EB81021A61236CA36323689B6813F019
:1006D000010F05D0002384F83430204605F064FF74
:1006E00010BD00BF10B5044603689A6812F0040FED
:1006F00019D01A6912F0040F15D0DA6822F004023A
:10070000DA60036804225A61C36C43F00203C364D5
:1007100080F83520002380F83430806C01F0BEF87A
:10072000204605F047FF23689A6812F0020F1AD09E
:100730001A6912F0020F16D0DA6822F00202DA60AB
:10074000236802225A61E36C43F00103E36404234B
:1007500084F83530002384F83430A06C01F09EF822
:10076000204605F027FF23689A6812F0100F0BD07F
:100770001A6912F0100F07D010225A61002384F872
:100780003430204605F004FF23689A6812F0080F01
:1007900010D01A6912F0080F0CD0DA6822F00802A3
:1007A000DA60236808225A61002384F83430204636
:1007B00005F0F4FE23689A6812F0010F10D01A6950
:1007C00012F0010F0CD0DA6822F00102DA6023681F
:1007D00001225A61002384F83430204605F0E4FEFB
:1007E00010BD00BF10B490F83440012C12D0022488
:1007F00080F83540019C43EA0443084C636241EAB7
:1008000002412162012380F83530002380F8343022
:10081000184600E0022010BC704700BF00000550E1
:1008200090F83430012B11D0012280F834200223BB
:1008300080F8353006490B6823F004030B6080F81C
:100840003520002380F83430184670470220704766
:100850000000055090F83430012B11D0012280F8AF
:100860003420022380F8353006490B6843F0040336
:100870000B6080F83520002380F83430184670472C
:10088000022070470000055000285CD010B50446D7
:1008900090F8353013F0FF0F01D1FFF777FE0223F8
:1008A00084F8353022681168284B0B4013602168AA
:1008B0000868626863691A43E3681A4323691A4344
:1008C000A3681343A2691343226A1343626A134362
:1008D000A26A1343E26A1A43236B134303430B6078
:1008E0006368102B0BD1237F627F43EA0223A27F30
:1008F00043EA0243E27F43EA0263154A93612268B6
:10090000D36843F01003D3602268D36843F0080330
:10091000D3602268D36843F00103D3602268D368B0
:1009200043F00403D3602268D36843F00203D3602A
:100930002268136843F4804313600020E0640123BD
:1009400084F8353010BD0120704700BF07F0E0FF8C
:100950000000055030B405682C6824F480242C6015
:10096000046863608368402B04D103689A6003685D
:10097000D96003E0036899600368DA6030BC7047AF
:10098000002832D010B40346022280F835200468D3
:1009900022681848104059689A681143DA68114370
:1009A0001A6911435A6911439A691143DA690A4372
:1009B000196A114340EA0102596A042903D1D86A2D
:1009C000196B01430A43226019684A6922F0070241
:1009D000586A0243042801D1986A02434A61002000
:1009E000D864012283F8352001E00120704710BC53
:1009F000704700BF3F8010F00346002800F00787D3
:100A000090F83520D2B2022A00F0038701680A6804
:100A100022F001020A60016800220A6001684A604F
:100A200001688A600168CA6001680A610268212160
:100A300051610268AA498A4254D9A1F589618A4262
:100A40002ED001F580618A422CD0A1F568718A42CE
:100A50002AD001F580618A4228D0A1F589618A42B5
:100A600026D001F580618A4225D0A1F568718A42BD
:100A700024D001F580618A4223D0A1F589618A42A0
:100A800022D001F580618A4221D0A1F568718A42A5
:100A900020D001F580618A421FD14FF480211EE0F1
:100AA00090491CE08F491AE08E4918E08D4916E004
:100AB0004FF4807113E04FF4807110E04FF48071B7
:100AC0000DE04FF480710AE04FF4802107E04FF40D
:100AD000802104E04FF4802101E04FF08071824AD0
:100AE000D1600FE181498A4253D9A8398A422ED078
:100AF00001F580618A422CD0A1F568718A422AD022
:100B000001F580618A4228D0A1F589618A4226D008
:100B100001F580618A4225D0A1F568718A4224D00E
:100B200001F580618A4223D0A1F589618A4222D0F1
:100B300001F580618A4221D0A1F568718A4220D0F6
:100B400001F580618A421FD14FF480211EE0654982
:100B50001CE064491AE0634918E0624916E04FF46A
:100B6000807113E04FF4807110E04FF480710DE05C
:100B70004FF480710AE04FF4802107E04FF48021A8
:100B800004E04FF4802101E04FF08071564A9160FB
:100B9000B8E057498A4253D948398A422ED001F5E4
:100BA00080618A422CD0A1F568718A422AD001F571
:100BB00080618A4228D0A1F589618A4226D001F558
:100BC00080618A4225D0A1F568718A4224D001F55E
:100BD00080618A4223D0A1F589618A4222D001F541
:100BE00080618A4221D0A1F568718A4220D001F546
:100BF00080618A421FD14FF480211EE039491CE0F8
:100C000038491AE0374918E0364916E04FF4807148
:100C100013E04FF4807110E04FF480710DE04FF459
:100C200080710AE04FF4802107E04FF4802104E056
:100C30004FF4802101E04FF080712E4AD16061E0D5
:100C40002D498A422ED001F580618A422CD0A1F52F
:100C500068718A422AD001F580618A4228D0A1F5C4
:100C600089618A4226D001F580618A4225D0A1F5AA
:100C700068718A4224D001F580618A4223D0A1F5AF
:100C800089618A4222D001F580618A4221D0A1F592
:100C900068718A4220D001F580618A422ED14FF4DA
:100CA00080212DE00F492BE00E4929E00D4927E076
:100CB0000C4925E04FF4807122E04FF480711FE071
:100CC0004FF480711CE04FF4807119E04FF48021E3
:100CD00016E04FF4802113E04FF4802110E000BFB4
:100CE000586402400400800000640240B860024082
:100CF0005860024000600240106002404FF0807176
:100D0000AB4A91601A68AB498A4254D9A1F589610E
:100D10008A422ED001F580618A422CD0A1F56871FB
:100D20008A422AD001F580618A4228D0A1F58961E2
:100D30008A4226D001F580618A4225D0A1F56871EA
:100D40008A4224D001F580618A4223D0A1F58961CD
:100D50008A4222D001F580618A4221D0A1F56871D2
:100D60008A4220D001F580618A421FD14FF40011E0
:100D70001EE020211CE020211AE0202118E0202183
:100D800016E04FF4006113E04FF4006110E04FF4FF
:100D900000610DE04FF400610AE04FF4001107E03C
:100DA0004FF4001104E04FF4001101E04FF0006136
:100DB000814AD1600CE181498A4253D9A8398A42DB
:100DC0002ED001F580618A422CD0A1F568718A424B
:100DD0002AD001F580618A4228D0A1F589618A4232
:100DE00026D001F580618A4225D0A1F568718A423A
:100DF00024D001F580618A4223D0A1F589618A421D
:100E000022D001F580618A4221D0A1F568718A4221
:100E100020D001F580618A421FD14FF400111EE0FD
:100E200020211CE020211AE0202118E0202116E0DA
:100E30004FF4006113E04FF4006110E04FF40061E3
:100E40000DE04FF400610AE04FF4001107E04FF4A9
:100E5000001104E04FF4001101E04FF00061564A28
:100E60009160B5E056498A4253D948398A422ED01A
:100E700001F580618A422CD0A1F568718A422AD09E
:100E800001F580618A4228D0A1F589618A4226D085
:100E900001F580618A4225D0A1F568718A4224D08B
:100EA00001F580618A4223D0A1F589618A4222D06E
:100EB00001F580618A4221D0A1F568718A4220D073
:100EC00001F580618A421FD14FF400111EE02021FC
:100ED0001CE020211AE0202118E0202116E04FF428
:100EE000006113E04FF4006110E04FF400610DE089
:100EF0004FF400610AE04FF4001107E04FF40011D5
:100F000004E04FF4001101E04FF00061284AD16085
:100F10005EE02C498A422ED001F580618A422CD0B5
:100F2000A1F568718A422AD001F580618A4228D0F1
:100F3000A1F589618A4226D001F580618A4225D0D7
:100F4000A1F568718A4224D001F580618A4223D0DC
:100F5000A1F589618A4222D001F580618A4221D0BF
:100F6000A1F568718A4220D001F580618A422BD1B7
:100F70004FF400112AE0202128E0202126E0202142
:100F800024E0202122E04FF400611FE04FF40061D3
:100F90001CE04FF4006119E04FF4006116E04FF4DB
:100FA000001113E04FF4001110E04FF400110DE0B8
:100FB000006002405864024000640240B860024091
:100FC00058600240106002404FF00061AB4A9160EF
:100FD0001A68AB498A4254D9A1F589618A422ED058
:100FE00001F580618A422CD0A1F568718A422AD02D
:100FF00001F580618A4228D0A1F589618A4226D014
:1010000001F580618A4225D0A1F568718A4224D019
:1010100001F580618A4223D0A1F589618A4222D0FC
:1010200001F580618A4221D0A1F568718A4220D001
:1010300001F580618A421FD14FF400211EE0082192
:101040001CE008211AE0082118E0082116E04FF4FE
:10105000007113E04FF4007110E04FF400710DE0E7
:101060004FF400710AE04FF4002107E04FF4002133
:1010700004E04FF4002101E04FF00071814AD1609B
:101080000CE181498A4253D9A8398A422ED001F510
:1010900080618A422CD0A1F568718A422AD001F57C
:1010A00080618A4228D0A1F589618A4226D001F563
:1010B00080618A4225D0A1F568718A4224D001F569
:1010C00080618A4223D0A1F589618A4222D001F54C
:1010D00080618A4221D0A1F568718A4220D001F551
:1010E00080618A421FD14FF400211EE008211CE0DC
:1010F00008211AE0082118E0082116E04FF40071D9
:1011000013E04FF4007110E04FF400710DE04FF464
:1011100000710AE04FF4002107E04FF4002104E0E1
:101120004FF4002101E04FF00071564A9160B5E0A4
:1011300056498A4253D948398A422ED001F58061F6
:101140008A422CD0A1F568718A422AD001F58061CB
:101150008A4228D0A1F589618A4226D001F58061B2
:101160008A4225D0A1F568718A4224D001F58061B8
:101170008A4223D0A1F589618A4222D001F580619B
:101180008A4221D0A1F568718A4220D001F58061A0
:101190008A421FD14FF400211EE008211CE00821E3
:1011A0001AE0082118E0082116E04FF4007113E05E
:1011B0004FF4007110E04FF400710DE04FF4007136
:1011C0000AE04FF4002107E04FF4002104E04FF45F
:1011D000002101E04FF00071284AD1605EE02C4907
:1011E0008A422ED001F580618A422CD0A1F5687127
:1011F0008A422AD001F580618A4228D0A1F589610E
:101200008A4226D001F580618A4225D0A1F5687115
:101210008A4224D001F580618A4223D0A1F58961F8
:101220008A4222D001F580618A4221D0A1F56871FD
:101230008A4220D001F580618A422BD14FF40021EF
:101240002AE0082128E0082126E0082124E00821DE
:1012500022E04FF400711FE04FF400711CE04FF4E6
:10126000007119E04FF4007116E04FF4002113E013
:101270004FF4002110E04FF400210DE00060024027
:101280005864024000640240B86002405860024066
:10129000106002404FF00071A34A91601A68A349A0
:1012A0008A4250D9A1F589618A422ED001F5806128
:1012B0008A422CD0A1F568718A422AD001F580615A
:1012C0008A4228D0A1F589618A4226D001F5806141
:1012D0008A4224D0A1F568718A4222D001F580614A
:1012E0008A4220D0A1F589618A421ED001F5806131
:1012F0008A421DD0A1F568718A421CD001F5806137
:101300008A421BD14FF480311AE0894918E088499C
:1013100016E0874914E0864912E0402110E04021A0
:101320000EE040210CE040210AE04FF4803107E05C
:101330004FF4803104E04FF4803101E04FF480013C
:101340007C4AD16002E17C498A424FD9A8398A425D
:101350002ED001F580618A422CD0A1F568718A42B5
:101360002AD001F580618A4228D0A1F589618A429C
:1013700026D001F580618A4224D0A1F568718A42A5
:1013800022D001F580618A4220D0A1F589618A428C
:101390001ED001F580618A421DD0A1F568718A4294
:1013A0001CD001F580618A421BD14FF480311AE0D4
:1013B0005F4918E05E4916E05D4914E05C4912E0BF
:1013C000402110E040210EE040210CE040210AE0E5
:1013D0004FF4803107E04FF4803104E04FF4803166
:1013E00001E04FF48001534A9160AFE053498A42D3
:1013F0004FD948398A422ED001F580618A422CD0DB
:10140000A1F568718A422AD001F580618A4228D00C
:10141000A1F589618A4226D001F580618A4224D0F3
:10142000A1F568718A4222D001F580618A4220D0FC
:10143000A1F589618A421ED001F580618A421DD0E2
:10144000A1F568718A421CD001F580618A421BD1E6
:101450004FF480311AE0364918E0354916E0344936
:1014600014E0334912E0402110E040210EE0402119
:101470000CE040210AE04FF4803107E04FF4803166
:1014800004E04FF4803101E04FF48001264AD1603E
:101490005CE02B498A422ED001F580618A422CD033
:1014A000A1F568718A422AD001F580618A4228D06C
:1014B000A1F589618A4226D001F580618A4224D053
:1014C000A1F568718A4222D001F580618A4220D05C
:1014D000A1F589618A421ED001F580618A421DD042
:1014E000A1F568718A421CD001F580618A4229D138
:1014F0004FF4803128E00E4926E00D4924E00C49E4
:1015000022E00B4920E040211EE040211CE0402168
:101510001AE0402118E04FF4803115E04FF480319B
:1015200012E04FF480310FE0006002405864024046
:101530000100800000640240B86002405860024030
:10154000106002404FF48001B34A91601A68B349B9
:101550008A4254D9A1F589618A422ED001F5806171
:101560008A422CD0A1F568718A422AD001F58061A7
:101570008A4228D0A1F589618A4226D001F580618E
:101580008A4225D0A1F568718A4224D001F5806194
:101590008A4223D0A1F589618A4222D001F5806177
:1015A0008A4221D0A1F568718A4220D001F580617C
:1015B0008A421FD14FF480111EE010211CE010213F
:1015C0001AE0102118E0102116E04FF4806113E0BA
:1015D0004FF4806110E04FF480610DE04FF48061C2
:1015E0000AE04FF4801107E04FF4801104E04FF45B
:1015F000801101E04FF08061894AD16000E18949A2
:101600008A4253D9A8398A422ED001F580618A4294
:101610002CD0A1F568718A422AD001F580618A42F6
:1016200028D0A1F589618A4226D001F580618A42DD
:1016300025D0A1F568718A4224D001F580618A42E3
:1016400023D0A1F589618A4222D001F580618A42C6
:1016500021D0A1F568718A4220D001F580618A42CB
:101660001FD14FF480111EE010211CE010211AE060
:10167000102118E0102116E04FF4806113E04FF4C0
:10168000806110E04FF480610DE04FF480610AE06A
:101690004FF4801107E04FF4801104E04FF4801103
:1016A00001E04FF080615E4A9160A9E05E498A42A4
:1016B00053D948398A422ED001F580618A422CD014
:1016C000A1F568718A422AD001F580618A4228D04A
:1016D000A1F589618A4226D001F580618A4225D030
:1016E000A1F568718A4224D001F580618A4223D035
:1016F000A1F589618A4222D001F580618A4221D018
:10170000A1F568718A4220D001F580618A421FD11B
:101710004FF480111EE010211CE010211AE010216E
:1017200018E0102116E04FF4806113E04FF480615F
:1017300010E04FF480610DE04FF480610AE04FF457
:10174000801107E04FF4801104E04FF4801101E0B4
:101750004FF08061304AD16052E034498A422ED045
:1017600001F580618A422CD0A1F568718A422AD0A5
:1017700001F580618A4228D0A1F589618A4226D08C
:1017800001F580618A4225D0A1F568718A4224D092
:1017900001F580618A4223D0A1F589618A4222D075
:1017A00001F580618A4221D0A1F568718A4220D07A
:1017B00001F580618A421FD14FF480111EE0102193
:1017C0001CE010211AE0102118E0102116E04FF45F
:1017D000806113E04FF4806110E04FF480610DE010
:1017E0004FF480610AE04FF4801107E04FF480115C
:1017F00004E04FF4801101E04FF08061064A9160EF
:101800000020D86483F8350083F834007047012045
:1018100070470120704700BF0060024058640240DA
:1018200000640240B860024058600240106002400C
:1018300038B590F83440012C2ED00446012084F8AD
:101840003400022084F835002568286820F0010063
:1018500028602046FFF77EF82268136843F01003E3
:1018600013602268136843F008031360226813684A
:1018700043F0040313602268536943F0800353610B
:101880002268136843F0020313602268136843F070
:1018900001031360002038BD022038BD38B504466E
:1018A0000268136823F001031360FEF7F7FD054695
:1018B00010E0FEF7F3FD401BB0F57A7F0AD9E36C28
:1018C00043F02003E364002384F83430032084F8D9
:1018D000350038BD23681B6813F0010FE9D10020E3
:1018E00084F83400012384F8353038BD10B504463F
:1018F0000368B14A934257D9583A5268AF498B426C
:101900002ED001F580618B422CD0A1F568718B42FD
:101910002AD001F580618B4228D0A1F589618B42E4
:1019200026D001F580618B4225D0A1F568718B42EC
:1019300024D001F580618B4223D0A1F589618B42CF
:1019400022D001F580618B4221D0A1F568718B42D4
:1019500020D001F580618B421FD14FF400211EE0A1
:1019600008211CE008211AE0082118E0082116E0EF
:101970004FF4007113E04FF4007110E04FF4007168
:101980000DE04FF400710AE04FF4002107E04FF43E
:10199000002104E04FF4002101E04FF000711142FA
:1019A00014BF0122002217E1854A934258D902F55B
:1019B0005272126881498B422ED001F580618B42B0
:1019C0002CD0A1F568718B422AD001F580618B4241
:1019D00028D0A1F589618B4226D001F580618B4228
:1019E00025D0A1F568718B4224D001F580618B422E
:1019F00023D0A1F589618B4222D001F580618B4211
:101A000021D0A1F568718B4220D001F580618B4215
:101A10001FD14FF400211EE008211CE008211AE02C
:101A2000082118E0082116E04FF4007113E04FF48C
:101A3000007110E04FF400710DE04FF400710AE006
:101A40004FF4002107E04FF4002104E04FF400219F
:101A500001E04FF00071114214BF01220022BBE0EF
:101A6000584A934257D9583A526854498B422ED01B
:101A700001F580618B422CD0A1F568718B422AD090
:101A800001F580618B4228D0A1F589618B4226D077
:101A900001F580618B4225D0A1F568718B4224D07D
:101AA00001F580618B4223D0A1F589618B4222D060
:101AB00001F580618B4221D0A1F568718B4220D065
:101AC00001F580618B421FD14FF400211EE00821F7
:101AD0001CE008211AE0082118E0082116E04FF464
:101AE000007113E04FF4007110E04FF400710DE04D
:101AF0004FF400710AE04FF4002107E04FF4002199
:101B000004E04FF4002101E04FF00071114214BFD6
:101B10000122002260E02C4A126828498B422ED014
:101B200001F580618B422CD0A1F568718B422AD0DF
:101B300001F580618B4228D0A1F589618B4226D0C6
:101B400001F580618B4225D0A1F568718B4224D0CC
:101B500001F580618B4223D0A1F589618B4222D0AF
:101B600001F580618B4221D0A1F568718B4220D0B4
:101B700001F580618B4229D14FF4002128E0082132
:101B800026E0082124E0082122E0082120E04FF48B
:101B900000711DE04FF400711AE04FF4007117E07E
:101BA0004FF4007114E04FF4002111E04FF40021D4
:101BB0000EE04FF400210BE0586402401060024038
:101BC000B860024058600240006002404FF000716F
:101BD000114214BF01220022002A00F07D811A6800
:101BE00012F0040F00F078811A6822F004021A60E3
:101BF0002368AA4A934254D9A2F5896293422ED00F
:101C000002F5806293422CD0A2F5687293422AD0EA
:101C100002F58062934228D0A2F58962934226D0D1
:101C200002F58062934225D0A2F56872934224D0D7
:101C300002F58062934223D0A2F58962934222D0BA
:101C400002F58062934221D0A2F56872934220D0BF
:101C500002F5806293421FD14FF400221EE0082259
:101C60001CE008221AE0082218E0082216E04FF4CF
:101C7000007213E04FF4007210E04FF400720DE0B8
:101C80004FF400720AE04FF4002207E04FF4002204
:101C900004E04FF4002201E04FF00072804BDA6064
:101CA0000CE1804A934253D9A83A93422ED002F5D0
:101CB000806293422CD0A2F5687293422AD002F53A
:101CC0008062934228D0A2F58962934226D002F521
:101CD0008062934225D0A2F56872934224D002F527
:101CE0008062934223D0A2F58962934222D002F50A
:101CF0008062934221D0A2F56872934220D002F50F
:101D0000806293421FD14FF400221EE008221CE0A3
:101D100008221AE0082218E0082216E04FF40072A8
:101D200013E04FF4007210E04FF400720DE04FF436
:101D300000720AE04FF4002207E04FF4002204E0B2
:101D40004FF4002201E04FF00072554B9A60B5E06D
:101D5000554A934253D9483A93422ED002F58062B5
:101D600093422CD0A2F5687293422AD002F5806289
:101D7000934228D0A2F58962934226D002F5806270
:101D8000934225D0A2F56872934224D002F5806276
:101D9000934223D0A2F58962934222D002F5806259
:101DA000934221D0A2F56872934220D002F580625E
:101DB00093421FD14FF400221EE008221CE00822AB
:101DC0001AE0082218E0082216E04FF4007213E02F
:101DD0004FF4007210E04FF400720DE04FF4007207
:101DE0000AE04FF4002207E04FF4002204E04FF431
:101DF000002201E04FF000722C4BDA605EE02C4ACA
:101E000093422ED002F5806293422CD0A2F56872E4
:101E100093422AD002F58062934228D0A2F58962CB
:101E2000934226D002F58062934225D0A2F56872D3
:101E3000934224D002F58062934223D0A2F58962B6
:101E4000934222D002F58062934221D0A2F56872BB
:101E5000934220D002F5806293422BD14FF40022AE
:101E60002AE0082228E0082226E0082224E00822AE
:101E700022E04FF400721FE04FF400721CE04FF4B8
:101E8000007219E04FF4007216E04FF4002213E0E4
:101E90004FF4002210E04FF400220DE0586402409D
:101EA00000640240B8600240586002400060024096
:101EB000106002404FF00072B14B9A60E36C43F047
:101EC0000103E364042384F83530002384F83430BC
:101ED000A36C0BB1204698472368AA4A934253D972
:101EE000583A5268A8498B422ED001F580618B4246
:101EF0002CD0A1F568718B422AD001F580618B420C
:101F000028D0A1F589618B4226D001F580618B42F2
:101F100024D0A1F568718B4222D001F580618B42FB
:101F200020D0A1F589618B421ED001F580618B42E2
:101F30001DD0A1F568718B421CD001F580618B42E8
:101F40001BD14FF480311AE0904918E08F4916E018
:101F50008E4914E08D4912E0402110E040210EE04E
:101F600040210CE040210AE04FF4803107E04FF4BB
:101F7000803104E04FF4803101E04FF480011142E0
:101F800014BF012200220DE1814A934254D902F587
:101F9000527212687C498B422ED001F580618B42CF
:101FA0002CD0A1F568718B422AD001F580618B425B
:101FB00028D0A1F589618B4226D001F580618B4242
:101FC00024D0A1F568718B4222D001F580618B424B
:101FD00020D0A1F589618B421ED001F580618B4232
:101FE0001DD0A1F568718B421CD001F580618B4238
:101FF0001BD14FF480311AE0644918E0634916E0C0
:10200000624914E0614912E0402110E040210EE0F5
:1020100040210CE040210AE04FF4803107E04FF40A
:10202000803104E04FF4803101E04FF4800111422F
:1020300014BF01220022B5E0564A934253D9583AC0
:10204000526851498B422ED001F580618B422CD0D1
:10205000A1F568718B422AD001F580618B4228D0AE
:10206000A1F589618B4226D001F580618B4224D095
:10207000A1F568718B4222D001F580618B4220D09E
:10208000A1F589618B421ED001F580618B421DD084
:10209000A1F568718B421CD001F580618B421BD188
:1020A0004FF480311AE0394918E0384916E03749D1
:1020B00014E0364912E0402110E040210EE04021BA
:1020C0000CE040210AE04FF4803107E04FF480310A
:1020D00004E04FF4803101E04FF48001114214BF5D
:1020E000012200225EE0264A126827498B422ED048
:1020F00001F580618B422CD0A1F568718B422AD00A
:1021000001F580618B4228D0A1F589618B4226D0F0
:1021100001F580618B4224D0A1F568718B4222D0F9
:1021200001F580618B4220D0A1F589618B421ED0E0
:1021300001F580618B421DD0A1F568718B421CD0E6
:1021400001F580618B4227D14FF4803126E00F49A1
:1021500024E00E4922E00D4920E00C491EE0402118
:102160001CE040211AE0402118E0402116E04FF425
:10217000803113E04FF4803110E04FF480310DE0F6
:10218000006002405864024010600240010080007C
:10219000B8600240586002404FF48001114214BF01
:1021A00001220022002A00F06F815A6912F0800F8C
:1021B00000F06A815A6922F080025A612368A24ABB
:1021C000934250D9A2F5896293422ED002F58062E3
:1021D00093422CD0A2F5687293422AD002F5806215
:1021E000934228D0A2F58962934226D002F58062FC
:1021F000934224D0A2F56872934222D002F5806205
:10220000934220D0A2F5896293421ED002F58062EB
:1022100093421DD0A2F5687293421CD002F58062F1
:1022200093421BD14FF480321AE0884A18E0874A63
:1022300016E0864A14E0854A12E0402210E040226F
:102240000EE040220CE040220AE04FF4803207E02A
:102250004FF4803204E04FF4803201E04FF480020A
:102260007B4BDA6002E17B4A93424FD9A83A934212
:102270002ED002F5806293422CD0A2F56872934270
:102280002AD002F58062934228D0A2F58962934257
:1022900026D002F58062934224D0A2F56872934260
:1022A00022D002F58062934220D0A2F58962934247
:1022B0001ED002F5806293421DD0A2F5687293424F
:1022C0001CD002F5806293421BD14FF480321AE099
:1022D0005E4A18E05D4A16E05C4A14E05B4A12E090
:1022E000402210E040220EE040220CE040220AE0B2
:1022F0004FF4803207E04FF4803204E04FF4803234
:1023000001E04FF48002524B9A60AFE0524A934290
:102310004FD9483A93422ED002F5806293422CD096
:10232000A2F5687293422AD002F58062934228D0C7
:10233000A2F58962934226D002F58062934224D0AE
:10234000A2F56872934222D002F58062934220D0B7
:10235000A2F5896293421ED002F5806293421DD09D
:10236000A2F5687293421CD002F5806293421BD1A1
:102370004FF480321AE0354A18E0344A16E0334A06
:1023800014E0324A12E0402210E040220EE04022E7
:102390000CE040220AE04FF4803207E04FF4803234
:1023A00004E04FF4803201E04FF480022B4BDA60FE
:1023B0005CE02B4A93422ED002F5806293422CD0EF
:1023C000A2F5687293422AD002F58062934228D027
:1023D000A2F58962934226D002F58062934224D00E
:1023E000A2F56872934222D002F58062934220D017
:1023F000A2F5896293421ED002F5806293421DD0FD
:10240000A2F5687293421CD002F58062934229D1F2
:102410004FF4803228E00D4A26E00C4A24E00B4AB3
:1024200022E00A4A20E040221EE040221CE0402236
:102430001AE0402218E04FF4803215E04FF4803269
:1024400012E04FF480320FE0586402400100800037
:1024500000640240B86002405860024000600240E0
:10246000106002404FF48002B34B9A60E36C43F07B
:102470000203E364042384F83530002384F8343005
:10248000A36C0BB1204698472368AC4A934257D9B6
:10249000583A5268AA498B422ED001F580618B428E
:1024A0002CD0A1F568718B422AD001F580618B4256
:1024B00028D0A1F589618B4226D001F580618B423D
:1024C00025D0A1F568718B4224D001F580618B4243
:1024D00023D0A1F589618B4222D001F580618B4226
:1024E00021D0A1F568718B4220D001F580618B422B
:1024F0001FD14FF480211EE092491CE091491AE05F
:10250000904918E08F4916E04FF4807113E04FF4C2
:10251000807110E04FF480710DE04FF480710AE09B
:102520004FF4802107E04FF4802104E04FF4802134
:1025300001E04FF08071114214BF0122002219E125
:10254000814A934258D902F5527212687C498B42F3
:102550002ED001F580618B422CD0A1F568718B42A1
:102560002AD001F580618B4228D0A1F589618B4288
:1025700026D001F580618B4225D0A1F568718B4290
:1025800024D001F580618B4223D0A1F589618B4273
:1025900022D001F580618B4221D0A1F568718B4278
:1025A00020D001F580618B421FD14FF480211EE0C5
:1025B00064491CE063491AE0624918E0614916E089
:1025C0004FF4807113E04FF4807110E04FF480718C
:1025D0000DE04FF480710AE04FF4802107E04FF4E2
:1025E000802104E04FF4802101E04FF0807111421E
:1025F00014BF01220022BDE0544A934257D9583AF1
:1026000052684F498B422ED001F580618B422CD00D
:10261000A1F568718B422AD001F580618B4228D0E8
:10262000A1F589618B4226D001F580618B4225D0CE
:10263000A1F568718B4224D001F580618B4223D0D3
:10264000A1F589618B4222D001F580618B4221D0B6
:10265000A1F568718B4220D001F580618B421FD1BA
:102660004FF480211EE037491CE036491AE0354915
:1026700018E0344916E04FF4807113E04FF4807194
:1026800010E04FF480710DE04FF480710AE04FF4D8
:10269000802107E04FF4802104E04FF4802101E025
:1026A0004FF08071114214BF0122002262E0224AE1
:1026B000126823498B422ED001F580618B422CD0C9
:1026C000A1F568718B422AD001F580618B4228D038
:1026D000A1F589618B4226D001F580618B4225D01E
:1026E000A1F568718B4224D001F580618B422FD017
:1026F000A1F589618B422ED001F580618B422DD0EE
:10270000A1F568718B422CD001F580618B422BD1F1
:102710004FF480212AE00B4928E00A4926E00949C4
:1027200024E0084922E04FF480711FE04FF48071EB
:102730001CE04FF4807119E00060024058640240D0
:102740001060024004008000B860024058600240FF
:102750004FF480710AE04FF4802107E04FF48021AC
:1027600004E04FF4802101E04FF08071114214BF6A
:1027700001220022002A00F07F811A6812F0020F65
:1027800000F07A811A6822F002021A602368AA4ACD
:10279000934254D9A2F5896293422ED002F5806209
:1027A00093422CD0A2F5687293422AD002F580623F
:1027B000934228D0A2F58962934226D002F5806226
:1027C000934225D0A2F56872934224D002F580622C
:1027D000934223D0A2F58962934222D002F580620F
:1027E000934221D0A2F56872934220D002F5806214
:1027F00093421FD14FF480221EE0904A1CE08F4A82
:102800001AE08E4A18E08D4A16E04FF4807213E009
:102810004FF4807210E04FF480720DE04FF480723C
:102820000AE04FF4802207E04FF4802204E04FF4E6
:10283000802201E04FF08072814BDA600EE1814A24
:10284000934253D9A83A93422ED002F58062934224
:102850002CD0A2F5687293422AD002F5806293428E
:1028600028D0A2F58962934226D002F58062934275
:1028700025D0A2F56872934224D002F5806293427B
:1028800023D0A2F58962934222D002F5806293425E
:1028900021D0A2F56872934220D002F58062934263
:1028A0001FD14FF480221EE0644A1CE0634A1AE004
:1028B000624A18E0614A16E04FF4807213E04FF468
:1028C000807210E04FF480720DE04FF480720AE0E5
:1028D0004FF4802207E04FF4802204E04FF480227E
:1028E00001E04FF08072564B9A60B7E0564A93422F
:1028F00053D9483A93422ED002F5806293422CD0AD
:10290000A2F5687293422AD002F58062934228D0E1
:10291000A2F58962934226D002F58062934225D0C7
:10292000A2F56872934224D002F58062934223D0CC
:10293000A2F58962934222D002F58062934221D0AF
:10294000A2F56872934220D002F5806293421FD1B3
:102950004FF480221EE0394A1CE0384A1AE0374A18
:1029600018E0364A16E04FF4807213E04FF480729C
:1029700010E04FF480720DE04FF480720AE04FF4E3
:10298000802207E04FF4802204E04FF4802201E02F
:102990004FF080722D4BDA6060E02D4A93422ED0CA
:1029A00002F5806293422CD0A2F5687293422AD03D
:1029B00002F58062934228D0A2F58962934226D024
:1029C00002F58062934225D0A2F56872934224D02A
:1029D00002F58062934223D0A2F58962934222D00D
:1029E00002F58062934221D0A2F56872934220D012
:1029F00002F5806293422DD14FF480222CE00F4AE1
:102A00002AE00E4A28E00D4A26E00C4A24E04FF462
:102A1000807221E04FF480721EE04FF480721BE060
:102A20004FF4807218E04FF4802215E04FF48022BA
:102A300012E04FF480220FE058640240040080004E
:102A400000640240B86002405860024000600240EA
:102A5000106002404FF08072B94B9A60E36C43F013
:102A60000403E364042384F83530002384F834300D
:102A7000A36C0BB1204698472368B24A934257D9BA
:102A8000583A5268B0498B422ED001F580618B4292
:102A90002CD0A1F568718B422AD001F580618B4260
:102AA00028D0A1F589618B4226D001F580618B4247
:102AB00025D0A1F568718B4224D001F580618B424D
:102AC00023D0A1F589618B4222D001F580618B4230
:102AD00021D0A1F568718B4220D001F580618B4235
:102AE0001FD14FF480111EE010211CE010211AE0CC
:102AF000102118E0102116E04FF4806113E04FF42C
:102B0000806110E04FF480610DE04FF480610AE0D5
:102B10004FF4801107E04FF4801104E04FF480116E
:102B200001E04FF08061114214BF0122002217E141
:102B3000864A934258D902F55272126882498B42F2
:102B40002ED001F580618B422CD0A1F568718B42AB
:102B50002AD001F580618B4228D0A1F589618B4292
:102B600026D001F580618B4225D0A1F568718B429A
:102B700024D001F580618B4223D0A1F589618B427D
:102B800022D001F580618B4221D0A1F568718B4282
:102B900020D001F580618B421FD14FF480111EE0DF
:102BA00010211CE010211AE0102118E0102116E07D
:102BB0004FF4806113E04FF4806110E04FF48061C6
:102BC0000DE04FF480610AE04FF4801107E04FF40C
:102BD000801104E04FF4801101E04FF08061114258
:102BE00014BF01220022BBE0594A934257D9583AF8
:102BF000526855498B422ED001F580618B422CD012
:102C0000A1F568718B422AD001F580618B4228D0F2
:102C1000A1F589618B4226D001F580618B4225D0D8
:102C2000A1F568718B4224D001F580618B4223D0DD
:102C3000A1F589618B4222D001F580618B4221D0C0
:102C4000A1F568718B4220D001F580618B421FD1C4
:102C50004FF480111EE010211CE010211AE0102119
:102C600018E0102116E04FF4806113E04FF480610A
:102C700010E04FF480610DE04FF480610AE04FF402
:102C8000801107E04FF4801104E04FF4801101E05F
:102C90004FF08061114214BF0122002260E0284AF7
:102CA000126829498B422ED001F580618B422CD0CD
:102CB000A1F568718B422AD001F580618B4228D042
:102CC000A1F589618B4226D001F580618B4225D028
:102CD000A1F568718B4224D001F580618B4223D02D
:102CE000A1F589618B4222D001F580618B4221D010
:102CF000A1F568718B4220D001F580618B4229D10A
:102D00004FF4801128E0102126E0102124E010214A
:102D100022E0102120E04FF480611DE04FF480613B
:102D20001AE04FF4806117E04FF4806114E04FF433
:102D3000801111E04FF480110EE04FF480110BE090
:102D4000006002405864024010600240B8600240D7
:102D5000586002404FF08061114214BF01220022EE
:102D6000002A00F0F6821A6812F0080F00F0F182D3
:102D70001A6812F4802F00F07781B54A934254D933
:102D8000A2F5896293422ED002F5806293422CD044
:102D9000A2F5687293422AD002F58062934228D04D
:102DA000A2F58962934226D002F58062934225D033
:102DB000A2F56872934224D002F58062934223D038
:102DC000A2F58962934222D002F58062934221D01B
:102DD000A2F56872934220D002F5806293421FD11F
:102DE0004FF480121EE010221CE010221AE0102284
:102DF00018E0102216E04FF4806213E04FF4806276
:102E000010E04FF480620DE04FF480620AE04FF46E
:102E1000801207E04FF4801204E04FF4801201E0CA
:102E20004FF080628B4BDA6000E18B4A934253D9BA
:102E3000A83A93422ED002F5806293422CD0A2F59C
:102E4000687293422AD002F58062934228D0A2F59C
:102E50008962934226D002F58062934225D0A2F582
:102E60006872934224D002F58062934223D0A2F587
:102E70008962934222D002F58062934221D0A2F56A
:102E80006872934220D002F5806293421FD14FF4C2
:102E900080121EE010221CE010221AE0102218E01E
:102EA000102216E04FF4806213E04FF4806210E0CD
:102EB0004FF480620DE04FF480620AE04FF480121C
:102EC00007E04FF4801204E04FF4801201E04FF06D
:102ED0008062604B9A60A9E0604A934253D9483AB5
:102EE00093422ED002F5806293422CD0A2F56872F4
:102EF00093422AD002F58062934228D0A2F58962DB
:102F0000934226D002F58062934225D0A2F56872E2
:102F1000934224D002F58062934223D0A2F58962C5
:102F2000934222D002F58062934221D0A2F56872CA
:102F3000934220D002F5806293421FD14FF4801358
:102F40001EE010231CE010231AE0102318E01023C9
:102F500016E04FF4806313E04FF4806310E04FF409
:102F600080630DE04FF480630AE04FF4801307E0C4
:102F70004FF4801304E04FF4801301E04FF08063BE
:102F8000374AD36052E0374A93422ED002F580622E
:102F900093422CD0A2F5687293422AD002F5806247
:102FA000934228D0A2F58962934226D002F580622E
:102FB000934225D0A2F56872934224D002F5806234
:102FC000934223D0A2F58962934222D002F5806217
:102FD000934221D0A2F56872934220D002F580621C
:102FE00093421FD14FF480131EE010231CE01023E6
:102FF0001AE0102318E0102316E04FF4806313E06A
:103000004FF4806310E04FF480630DE04FF4806371
:103010000AE04FF4801307E04FF4801304E04FF40C
:10302000801301E04FF080630D4A936023681A68B3
:1030300012F4002F03D1312384F8353085E11B6869
:1030400013F4002F00F08181412384F835307CE1B6
:103050005864024000640240B86002405860024078
:1030600000600240106002401A6812F4807F03D1B1
:103070001A6822F008021A602368AA4A934254D9B7
:10308000A2F5896293422ED002F5806293422CD041
:10309000A2F5687293422AD002F58062934228D04A
:1030A000A2F58962934226D002F58062934225D030
:1030B000A2F56872934224D002F58062934223D035
:1030C000A2F58962934222D002F58062934221D018
:1030D000A2F56872934220D002F5806293421FD11C
:1030E0004FF480121EE010221CE010221AE0102281
:1030F00018E0102216E04FF4806213E04FF4806273
:1031000010E04FF480620DE04FF480620AE04FF46B
:10311000801207E04FF4801204E04FF4801201E0C7
:103120004FF08062804BDA600CE1804A934253D9C1
:10313000A83A93422ED002F5806293422CD0A2F599
:10314000687293422AD002F58062934228D0A2F599
:103150008962934226D002F58062934225D0A2F57F
:103160006872934224D002F58062934223D0A2F584
:103170008962934222D002F58062934221D0A2F567
:103180006872934220D002F5806293421FD14FF4BF
:1031900080121EE010221CE010221AE0102218E01B
:1031A000102216E04FF4806213E04FF4806210E0CA
:1031B0004FF480620DE04FF480620AE04FF4801219
:1031C00007E04FF4801204E04FF4801201E04FF06A
:1031D0008062554B9A60B5E0554A934253D9483ABC
:1031E00093422ED002F5806293422CD0A2F56872F1
:1031F00093422AD002F58062934228D0A2F58962D8
:10320000934226D002F58062934225D0A2F56872DF
:10321000934224D002F58062934223D0A2F58962C2
:10322000934222D002F58062934221D0A2F56872C7
:10323000934220D002F5806293421FD14FF4801355
:103240001EE010231CE010231AE0102318E01023C6
:1032500016E04FF4806313E04FF4806310E04FF406
:1032600080630DE04FF480630AE04FF4801307E0C1
:103270004FF4801304E04FF4801301E04FF08063BB
:103280002C4AD3605EE02C4A93422ED002F5806235
:1032900093422CD0A2F5687293422AD002F5806244
:1032A000934228D0A2F58962934226D002F580622B
:1032B000934225D0A2F56872934224D002F5806231
:1032C000934223D0A2F58962934222D002F5806214
:1032D000934221D0A2F56872934220D002F5806219
:1032E00093422BD14FF480132AE0102328E01023BF
:1032F00026E0102324E0102322E04FF480631FE037
:103300004FF480631CE04FF4806319E04FF4806356
:1033100016E04FF4801313E04FF4801310E04FF4E5
:1033200080130DE05864024000640240B86002401F
:103330005860024000600240106002404FF080631D
:10334000B64A9360312384F83530236C0BB12046A4
:1033500098472368B24A934257D9583A5268B149BC
:103360008B422ED001F580618B422CD0A1F5687183
:103370008B422AD001F580618B4228D0A1F589616A
:103380008B4226D001F580618B4225D0A1F5687172
:103390008B4224D001F580618B4223D0A1F5896155
:1033A0008B4222D001F580618B4221D0A1F568715A
:1033B0008B4220D001F580618B421FD14FF4001168
:1033C0001EE020211CE020211AE0202118E020210D
:1033D00016E04FF4006113E04FF4006110E04FF489
:1033E00000610DE04FF400610AE04FF4001107E0C6
:1033F0004FF4001104E04FF4001101E04FF00061C0
:10340000114214BF0122002218E1874A934258D981
:1034100002F55272126883498B422ED001F5806109
:103420008B422CD0A1F568718B422AD001F58061C6
:103430008B4228D0A1F589618B4226D001F58061AD
:103440008B4225D0A1F568718B4224D001F58061B3
:103450008B4223D0A1F589618B4222D001F5806196
:103460008B4221D0A1F568718B4220D001F580619B
:103470008B421FD14FF400111EE020211CE02021BF
:103480001AE0202118E0202116E04FF4006113E03B
:103490004FF4006110E04FF400610DE04FF4006163
:1034A0000AE04FF4001107E04FF4001104E04FF47C
:1034B000001101E04FF00061114214BF012200220F
:1034C000BCE05A4A934257D9583A526855498B4200
:1034D0002ED001F580618B422CD0A1F568718B4212
:1034E0002AD001F580618B4228D0A1F589618B42F9
:1034F00026D001F580618B4225D0A1F568718B4201
:1035000024D001F580618B4223D0A1F589618B42E3
:1035100022D001F580618B4221D0A1F568718B42E8
:1035200020D001F580618B421FD14FF400111EE0C5
:1035300020211CE020211AE0202118E0202116E0A3
:103540004FF4006113E04FF4006110E04FF40061AC
:103550000DE04FF400610AE04FF4001107E04FF472
:10356000001104E04FF4001101E04FF0006111423E
:1035700014BF0122002261E0284A126829498B42C7
:103580002ED001F580618B422CD0A1F568718B4261
:103590002AD001F580618B4228D0A1F589618B4248
:1035A00026D001F580618B4225D0A1F568718B4250
:1035B00024D001F580618B4223D0A1F589618B4233
:1035C00022D001F580618B4221D0A1F568718B4238
:1035D00020D001F580618B422AD14FF4001129E0FF
:1035E000202127E0202125E0202123E0202121E0C7
:1035F0004FF400611EE04FF400611BE04FF40061E6
:1036000018E04FF4006115E04FF4001112E04FF4A0
:1036100000110FE04FF400110CE000BF0060024009
:103620005864024010600240B86002405860024096
:103630004FF00061114214BF01220022002A00F065
:10364000F5821A6812F0100F00F0F0821A6812F476
:10365000802F00F07D81B84A934254D9A2F5896247
:1036600093422ED002F5806293422CD0A2F568726C
:1036700093422AD002F58062934228D0A2F5896253
:10368000934226D002F58062934225D0A2F568725B
:10369000934224D002F58062934223D0A2F589623E
:1036A000934222D002F58062934221D0A2F5687243
:1036B000934220D002F5806293421FD14FF4001252
:1036C0001EE020221CE020221AE0202218E0202206
:1036D00016E04FF4006213E04FF4006210E04FF484
:1036E00000620DE04FF400620AE04FF4001207E0C0
:1036F0004FF4001204E04FF4001201E04FF00062BA
:103700008E4BDA6000E18E4A934253D9A83A934235
:103710002ED002F5806293422CD0A2F568729342BB
:103720002AD002F58062934228D0A2F589629342A2
:1037300026D002F58062934225D0A2F568729342AA
:1037400024D002F58062934223D0A2F5896293428D
:1037500022D002F58062934221D0A2F56872934292
:1037600020D002F5806293421FD14FF400121EE078
:1037700020221CE020221AE0202218E0202216E05D
:103780004FF4006213E04FF4006210E04FF4006267
:103790000DE04FF400620AE04FF4001207E04FF42E
:1037A000001204E04FF4001201E04FF00062634B9E
:1037B0009A60A9E0634A934253D9483A93422ED083
:1037C00002F5806293422CD0A2F5687293422AD00F
:1037D00002F58062934228D0A2F58962934226D0F6
:1037E00002F58062934225D0A2F56872934224D0FC
:1037F00002F58062934223D0A2F58962934222D0DF
:1038000002F58062934221D0A2F56872934220D0E3
:1038100002F5806293421FD14FF400131EE0202373
:103820001CE020231AE0202318E0202316E04FF4A8
:10383000006313E04FF4006310E04FF400630DE009
:103840004FF400630AE04FF4001307E04FF4001355
:1038500004E04FF4001301E04FF000633A4AD360F4
:1038600052E03A4A93422ED002F5806293422CD025
:10387000A2F5687293422AD002F58062934228D062
:10388000A2F58962934226D002F58062934225D048
:10389000A2F56872934224D002F58062934223D04D
:1038A000A2F58962934222D002F58062934221D030
:1038B000A2F56872934220D002F5806293421FD134
:1038C0004FF400131EE020231CE020231AE02023E5
:1038D00018E0202316E04FF4006313E04FF4006378
:1038E00010E04FF400630DE04FF400630AE04FF482
:1038F000001307E04FF4001304E04FF4001301E05D
:103900004FF00063104A936023681A6812F4002F86
:1039100006D1636C002B00F089812046984710BDCA
:103920001B6813F4002F00F08181E36B002B00F083
:103930007D812046984710BD5864024000640240D3
:10394000B8600240586002400060024010600240CF
:103950001A6812F4807F03D11A6822F010021A60EC
:103960002368B34A934254D9A2F5896293422ED078
:1039700002F5806293422CD0A2F5687293422AD05D
:1039800002F58062934228D0A2F58962934226D044
:1039900002F58062934225D0A2F56872934224D04A
:1039A00002F58062934223D0A2F58962934222D02D
:1039B00002F58062934221D0A2F56872934220D032
:1039C00002F5806293421FD14FF400121EE02022C4
:1039D0001CE020221AE0202218E0202216E04FF4FA
:1039E000006213E04FF4006210E04FF400620DE05B
:1039F0004FF400620AE04FF4001207E04FF40012A7
:103A000004E04FF4001201E04FF00062894BDA60ED
:103A100000E1894A934253D9A83A93422ED002F545
:103A2000806293422CD0A2F5687293422AD002F5AC
:103A30008062934228D0A2F58962934226D002F593
:103A40008062934225D0A2F56872934224D002F599
:103A50008062934223D0A2F58962934222D002F57C
:103A60008062934221D0A2F56872934220D002F581
:103A7000806293421FD14FF400121EE020221CE00E
:103A800020221AE0202218E0202216E04FF40062E3
:103A900013E04FF4006210E04FF400620DE04FF4C9
:103AA00000620AE04FF4001207E04FF4001204E055
:103AB0004FF4001201E04FF000625E4B9A60A9E003
:103AC0005E4A934253D9483A93422ED002F580621F
:103AD00093422CD0A2F5687293422AD002F58062FC
:103AE000934228D0A2F58962934226D002F58062E3
:103AF000934225D0A2F56872934224D002F58062E9
:103B0000934223D0A2F58962934222D002F58062CB
:103B1000934221D0A2F56872934220D002F58062D0
:103B200093421FD14FF400131EE020231CE02023FA
:103B30001AE0202318E0202316E04FF4006313E07E
:103B40004FF4006310E04FF400630DE04FF40063A6
:103B50000AE04FF4001307E04FF4001304E04FF4C1
:103B6000001301E04FF00063354AD36052E0354A5C
:103B700093422ED002F5806293422CD0A2F5687257
:103B800093422AD002F58062934228D0A2F589623E
:103B9000934226D002F58062934225D0A2F5687246
:103BA000934224D002F58062934223D0A2F5896229
:103BB000934222D002F58062934221D0A2F568722E
:103BC000934220D002F5806293421FD14FF400133C
:103BD0001EE020231CE020231AE0202318E02023ED
:103BE00016E04FF4006313E04FF4006310E04FF46D
:103BF00000630DE04FF400630AE04FF4001307E0A8
:103C00004FF4001304E04FF4001301E04FF00063A1
:103C10000B4A9360E36CE364112384F8353000238E
:103C200084F83430E36B0BB12046984710BD00BFD9
:103C30005864024000640240B8600240586002408C
:103C4000006002401060024030B40568029C44EA03
:103C500003436B640368DA634368B3F5403F35D1CF
:103C600001F07F4501F47F0201F47F43C9B284680B
:103C70001CB913432B43194325E0012C02D11343F4
:103C8000194320E0022C07D1D20C9B0AD20242EA4F
:103C9000431343EAD10116E0032C0AD1ED0FD20CF5
:103CA000DB0A920242EA431343EAC53343EAD101F5
:103CB00009E02D0F120D1B0B120242EA031343EA17
:103CC000053343EA11110368996301E00368D96081
:103CD00030BC7047704700BF48B310B5044690F839
:103CE000393013F0FF0F04D1002380F83830FFF78C
:103CF000F1FF022384F8393021680B6823F4403245
:103D0000636813430B6021684B6B23F00702A368C1
:103D100013434B6321680B6C064A1A40E368134354
:103D20000B640020E063012384F8393010BD0120CA
:103D3000704700BF00C0FFFF30B583B090F8384037
:103D4000012C17D00446012084F83800022084F8A2
:103D500039002568286820F0010028600698009046
:103D60002046FFF771FF2268136843F001031360D8
:103D7000002000E0022003B030BD00BF70B5044653
:103D80000D4603681B6813F0010F30D0FCF786FB6B
:103D9000064627E05168536803F00103C1F3401160
:103DA0000B430BD0202393602368012098600423E9
:103DB00084F83930002384F8383070BDB5F1FF3F06
:103DC00010D025B1FCF76AFB801B85420AD2002384
:103DD00084F83830E36B43F02003E363032084F876
:103DE000390070BD2268536813F0020FD2D02368E7
:103DF000DB6913F0200F24D0FCF750FB06461BE0D4
:103E00005A6812F0080F06D008229A60042384F83A
:103E10003930012070BDB5F1FF3F0DD025B1FCF761
:103E20003DFB801B854207D2E36B43F02003E36335
:103E3000032084F8390070BD23685A6812F0100F0F
:103E4000DED0236802229A60236810229A60012340
:103E500084F83930002084F8380070BD90F838308C
:103E6000012B7FD070B4012380F83830022380F812
:103E70003930002937D105686B6A3C4C1C4000EB97
:103E80000113DB69A3F10902012A0BD88A1C120174
:103E90008618825843EA0242736803F07F43134353
:103EA000234309E08A1C12018618825843EA024320
:103EB000726843EA026323436B620568AB692C4A6C
:103EC0001A4000EB0114A3691343AB61E369093B9A
:103ED000012B3FD8023100EB01114B6823F07F43E7
:103EE0000268936236E00568EB69204C1C4000EBE9
:103EF0000113DB69A3F10902012A0BD88A1C120104
:103F00008618825843EA0242736803F07F431343E2
:103F1000234309E08A1C12018618825843EA0243AF
:103F2000726843EA02632343EB6105682B69104A18
:103F30001A4000EB0114A36913432B61E369093BA9
:103F4000012B07D8023100EB01114B6823F07F43AE
:103F500002681362012380F83930002380F838307A
:103F6000184601E00220704770BC7047F0FFFC006B
:103F700000C0FFFF10B4046863608368402B04D165
:103F800003689A600368D96003E003689960036876
:103F9000DA6010BC704700BF38B590F83440012C8F
:103FA00042D0012480F8344005682C6814F4002FB6
:103FB00003D1122480F8354006E02C6814F4002F59
:103FC00002D0222480F835400446286820F0010001
:103FD00028602568286840F48020286020680361F4
:103FE000049B2046FFF7C6FF2268136843F01003C6
:103FF00013602268136843F0080313602268136893
:1040000043F0040313602268536943F08003536153
:104010002268136843F0020313602268136843F0B8
:1040200001031360002038BD022038BD12B90368B7
:10403000D96001E00368196100207047F0B583B0D2
:104040000024D8E00123A3400A6803EA0205AB423A
:1040500040F0D0804A68122A18BF022A10D1E60820
:10406000083650F826C004F0070297000F22BA4025
:104070002CEA020E0A69BA404EEA020240F82620F3
:10408000026867000326BE40F64302EA060E4A684D
:1040900002F00302BA404EEA020202604A6802F1EC
:1040A000FF3E112A18BFBEF1010F01D9122A10D10B
:1040B000826806EA020ECA68BA404EEA02028260CC
:1040C000426822EA03034A68C2F30012A2401A437C
:1040D0004260C3681E408B68BB403343C3604B687B
:1040E00013F0805F00F08680454B5A6C42F48042AA
:1040F0005A645B6C03F480430193019BA608B21CD5
:10410000404B53F8227004F003039B000F229A40A7
:1041100027EA02073C4A904225D002F5806290428D
:1041200023D002F58062904221D002F58062904255
:104130001FD002F5806290421DD002F5806290424D
:104140001BD002F58062904219D002F58062904245
:1041500017D002F58062904215D002F5806290423D
:1041600013D1092212E0002210E001220EE0022207
:104170000CE003220AE0042208E0052206E0062201
:1041800004E0072202E0082200E00A2202FA03F318
:104190003B4302361B4A42F826301C4B1A68EB435D
:1041A00002EA03064F6817F4803F01D045EA020691
:1041B000164A1660526803EA02064F6817F4003F79
:1041C00001D045EA0206114A5660926803EA0206E7
:1041D0004F6817F4801F01D045EA02060B4A96602B
:1041E000D26813404E6816F4001F01D045EA02035E
:1041F000064AD36001340F2C7FF624AF03B0F0BD24
:10420000003802400038014000000240003C0140FC
:104210000AB18161704709048161704730B4056853
:104220006868064C0440C1F3090141EA02421343A5
:10423000029818432043686030BC7047009800FC27
:1042400070B504460D46FCF729F923689A6912F007
:10425000100F47D0064694F83520D2B2122A09D062
:1042600094F83520D2B2522A04D094F83520D2B234
:10427000622A19D15A6812F0007F15D15A6842F4A7
:1042800080425A6010E0B5F1FF3F0DD025B1FCF738
:1042900005F9801B854207D2012384F835300023BD
:1042A00084F83430032070BD23689A6912F0200F1F
:1042B000E9D01022DA6123682022DA61226853688B
:1042C00023F0FF7323F48B3323F4FF7323F00103F4
:1042D00053600423A363012084F83500002384F88D
:1042E000343070BD002070BD70B504460D46FCF73B
:1042F000D5F8064619E029462046FFF7A1FFD8B9B0
:10430000B5F1FF3F11D025B1FCF7C8F8801B8542FD
:104310000BD2A36B43F02003A363012384F8353051
:10432000002384F83430032070BD23689B6913F0A8
:10433000020FE0D0002070BD012070BD2DE9F041DA
:1043400005460E4690461C46FCF7A8F80746B8F10D
:10435000000F12D02EE0B4F1FF3F0ED024B1FCF7D5
:104360009DF8C01B844208D2012385F83530002314
:1043700085F834300320BDE8F0812B689B6926EA7C
:104380000303C3F31003002BE5D10020BDE8F08147
:10439000B4F1FF3F0ED024B1FCF780F8C01B84427B
:1043A00008D2012385F83530002385F83430032006
:1043B000BDE8F0812B689B6926EA0303C3F3100371
:1043C000002BE5D00020BDE8F08100BF70B582B0C1
:1043D000044616461D464FF4005300934FF0807379
:1043E000EAB2FFF71BFF06992046FFF77DFF20B1D9
:1043F000A36B042B21D1012322E0012D03D12368DB
:10440000F6B29E620FE02368320A9A62069920464D
:10441000FFF76AFF20B1A36B042B10D101230FE03B
:104420002368F6B29E62069B002280212046FFF799
:1044300085FF034620B1032302E0032300E00323AA
:10444000184602B070BD00BF70B582B00446164673
:104450001D464FF4005300930023EAB2FFF7DEFE3F
:1044600006992046FFF740FF20B1A36B042B21D112
:10447000012322E0012D03D12368F6B29E620FE0F2
:104480002368320A9A6206992046FFF72DFF20B171
:10449000A36B042B10D101230FE02368F6B29E62B8
:1044A000069B002240212046FFF748FF034620B12B
:1044B000032302E0032300E00323184602B070BD8B
:1044C00070B505460C46FBF7E9FF064616E02146A7
:1044D0002846FFF7B5FEC0B924B1FBF7DFFF801B0C
:1044E00084420BD2AB6B43F02003AB63012385F80E
:1044F0003530002385F83430032070BD2B689B696C
:1045000013F0200FE3D0002070BD012070BD00BF6C
:10451000704700BF00284FD010B5044690F83530E2
:1045200013F0FF0F04D1002380F83430FFF7F0FFC1
:10453000022384F835302268136823F001031360E6
:104540002268636823F0706313612268936823F420
:1045500000439360A3685BB1E268012A04D122683A
:1045600043F40043936003E0226843F40443936000
:10457000E368022B03D123684FF400625A6022687B
:1045800051680E4B0B4353602268216963690B43EA
:10459000A16943EA0123D3602268E169236A0B43DE
:1045A00013602268136843F0010313600020A063C6
:1045B000012384F8353010BD0120704700800002CF
:1045C000704700BF90B110B50446022380F8353023
:1045D0000268136823F001031360FFF7F1FF002066
:1045E000A06384F8350084F8340010BD01207047C2
:1045F0002DE9F04182B0BDF8245090F83540E4B286
:10460000012C40F0A580089C002D18BF002C00F064
:10461000A1800468A46914F4004F40F09D8090F8D4
:104620003440012C00F09A800E460446012180F8A7
:104630003410522180F83510002181630A990091CD
:104640003146FFF7C3FE60B1A36B042B04D10023F6
:1046500084F83430012388E0002384F834300323C5
:1046600083E0FF2D0AD9002300934FF08073FF22CF
:1046700031462046FFF7D2FDFF270CE000230093D0
:104680004FF00073EAB231462046FFF7C7FD2F46D0
:1046900001E0CDF820800A992046FFF725FE20B1E1
:1046A000A36B042B5CD101235FE02368089A02F11D
:1046B000010812789A62013DADB2013F0CBF01239F
:1046C0000023002D0CBF002303F00103F3B10A9B6C
:1046D000002280212046FFF731FE002842D1FF2D25
:1046E0000AD9002300934FF08073FF223146204601
:1046F000FFF794FDFF2709E0002300934FF00073BC
:10470000EAB231462046FFF789FD2F46002DC0D181
:1047100019212046FFF7D4FE034620B1A36B042BDA
:1047200022D1012321E022682021D16121684A6839
:1047300022F0FF7222F48B3222F4FF7222F0010287
:104740004A60012284F83520002284F834200CE0ED
:1047500002230AE0012308E0022306E0022304E02A
:10476000032302E0032300E00323184602B0BDE860
:10477000F08100BF2DE9F04182B0BDF8245090F8DF
:104780003540E4B2012C40F0A680089C002D18BFF3
:10479000002C00F0A2800468A46914F4004F40F0DB
:1047A0009E8090F83440012C00F09B800E46044619
:1047B000012180F83410622180F8351000218163D6
:1047C0000A9900913146FFF73FFE60B1A36B042BBD
:1047D00004D1002384F83430012389E0002384F8D5
:1047E0003430032384E0FF2D0BD94FF41053009392
:1047F0004FF08073FF2231462046FFF70FFDFF2761
:104800000DE04FF4105300934FF00073EAB23146BD
:104810002046FFF703FD2F4601E0CDF820800A9BDC
:10482000002204212046FFF789FD00285BD1089B68
:1048300003F1010823685B6A089A1370013DADB269
:10484000013F0CBF01230023002D0CBF002303F008
:104850000103F3B10A9B002280212046FFF76EFD81
:10486000002842D1FF2D0AD9002300934FF0807316
:10487000FF2231462046FFF7D1FCFF2709E0002345
:1048800000934FF00073EAB231462046FFF7C6FCB2
:104890002F46002DC1D119212046FFF711FE0346F6
:1048A00020B1A36B042B22D1012321E02268202117
:1048B000D16121684A6822F0FF7222F48B3222F41F
:1048C000FF7222F001024A60012284F835200022A2
:1048D00084F834200CE002230AE0012308E00223DC
:1048E00006E0022304E0032302E0032300E00323A5
:1048F000184602B0BDE8F08190F83500704700BF5F
:10490000F0B54D680468E368C3F30B431D44D2015E
:104910001444D4F8883003F47043C4F88830046831
:1049200016190B68E468C4F30B442344013343EACB
:104930000543C6F88830CD680468E368C3F30A030A
:104940001D441444D4F88C3003F47043C4F88C3004
:10495000046816198B68E468C4F30A04234401331D
:1049600043EA0543C6F88C3003681344D3F89440F7
:1049700024F00704C3F89440036813440C69C3F897
:10498000944091F831E091F832308F69066816440E
:10499000D6F89C400025C6F89C500668164491F84D
:1049A000304044EA0E2444EA034343EA0763C6F86E
:1049B0009C3003681344D3F8984024F0FF04C3F8F4
:1049C0009840036813444C69C3F898400368134443
:1049D000D3F8A0602D4C3440C3F8A04003681344C2
:1049E000CE690C6A3443C3F8A04003681344D3F87B
:1049F000AC40C3F8AC50036813444C6AC3F8AC40F5
:104A00000B695BB1012B0BD0022B18BF042B09D013
:104A1000032B09D0072B09D1022708E0042706E061
:104A2000032704E0022702E0022700E001270468D0
:104A30001444D4F8B03003F0E023C4F8B030046874
:104A4000144404F184058C6A04FB07F64B680C6877
:104A50001C1B04FB07F3033343EA0643EB620368C2
:104A60001344D3F8B4500A4C2C40C3F8B440036844
:104A70001344C96AC3F8B41003681A44D2F88430E6
:104A800043F00103C2F88430F0BD00BFF8F8FFFF27
:104A900000F8FFFF704700BF002878D038B5044603
:104AA00090F8A13013F0FF0F04D1002380F8A0305C
:104AB000FFF7F0FF022384F8A1302268936923F006
:104AC00070439361216888696368A2681343E26850
:104AD0001A432369134303438B6121688A682D4B72
:104AE0001A408A60656921688868A26942EA0542BD
:104AF00002438A602168CA681A40CA60E569216871
:104B0000C868226A42EA05420243CA6021680A690B
:104B10001A400A61656A21680869A26A42EA054288
:104B200002430A61226851690B405361E06A2268BE
:104B30005169236B43EA00430B43536194F83530CA
:104B400094F8362012042068C16A01F07F41C162E6
:104B50002168C86A42EA032294F8343013430343BD
:104B6000CB622268536B43F0040353632268536B98
:104B700043F0020353632268936943F00103936196
:104B80000020C4F8A400012384F8A13038BD01201E
:104B9000704700BF00F800F090F8A030012B27D03C
:104BA0002DE9F04196460F4606464FF0010880F881
:104BB000A080022380F8A130342404FB020438349E
:104BC0000D460FCD0FC40FCD0FC40FCD0FC42B68F2
:104BD0002360724639463046FFF792FE3368C3F8C9
:104BE000248086F8A180002086F8A000BDE8F0812E
:104BF00002207047F8B590F8A040012C20D0044660
:104C0000012780F8A070022084F8A100342505FB5C
:104C100003F505F1380025440026AE63E9632E64F0
:104C20006A6429666A661A4621182046FFF768FEFC
:104C300023685F6284F8A17084F8A0603046F8BDF4
:104C40000220F8BDF8B590F8A040012C22D004460F
:104C5000012580F8A050022084F8A100342000FB38
:104C600003F000F1380E20448163076E3944C163BC
:104C70000264466E164446641A4604EB0E01204652
:104C8000FFF73EFE23685D6284F8A150002084F89F
:104C9000A000F8BD0220F8BD90F8A100704700BF49
:104CA000704700BF10B582B01C4B1A6C42F08052A6
:104CB0001A641B6C03F080530193019B184A13681C
:104CC00043F480331360FBF7E9FB044605E0FBF790
:104CD000E5FB001BB0F57A7F1AD8114B5B6813F423
:104CE000803FF4D00E4A136843F400331360FBF79F
:104CF000D5FB044605E0FBF7D1FB001BB0F57A7F3E
:104D000008D8074B5B6813F4003FF4D0002002E0A2
:104D1000032000E0032002B010BD00BF00380240B5
:104D20000070004030B583B00446036813F0010FF3
:104D300000F08680A54B9B6803F00C03042B0AD07F
:104D4000A24B9B6803F00C03082B0DD19F4B5B68B3
:104D500013F4800F08D09D4B1B6813F4003F6FD0F5
:104D60006368002B6CD1FBE1984B1A6822F4803207
:104D70001A601A6822F480221A601A6822F48032BB
:104D80001A60FBF78BFB054607E0FBF787FB401B30
:104D900041F28833984200F2E5818C4B1B6813F492
:104DA000003FF2D1894A136823F4803313606368AB
:104DB000B3F5803F09D11346126822F480221A60AD
:104DC0001A6842F480321A6015E0B3F5A02F09D1B9
:104DD0007E4B1A6842F480221A601A6842F48032CC
:104DE0001A6008E0794B1A6822F480221A601A6867
:104DF00022F480321A6063688BB1FBF74FFB0546E3
:104E000007E0FBF74BFB401B41F28833984200F26E
:104E1000AB816E4B1B6813F4003FF2D010E0FBF740
:104E20003DFB054607E0FBF739FB401B41F28833A9
:104E3000984200F29B81654B1B6813F4003FF2D14E
:104E4000236813F0020F5ED0604B9B6813F00C0FC9
:104E50000AD05E4B9B6803F00C03082B1BD15B4B05
:104E60005B6813F4800F16D1584B1B6813F0020FC8
:104E700003D0E368012B40F07B815448036823F0A2
:104E8000F8012369F82292FAA2F2B2FA82F2934070
:104E90000B43036037E0E3680BB34C4A136843F0FD
:104EA00001031360FBF7FAFA054605E0FBF7F6FA93
:104EB000401B642800F25E81444B1B6813F0020F14
:104EC000F4D04248036823F0F8012369F82292FAEB
:104ED000A2F2B2FA82F293400B43036013E03B4A22
:104EE000136823F001031360FBF7D8FA054605E0C9
:104EF000FBF7D4FA401B642800F23E81334B1B6859
:104F000013F0020FF4D1236813F0080F2AD063695D
:104F1000A3B12E4A536F43F001035367FBF7BEFA68
:104F2000054605E0FBF7BAFA401B642800F226812B
:104F3000264B5B6F13F0020FF4D013E0234A536F3C
:104F400023F001035367FBF7A9FA054605E0FBF7D9
:104F5000A5FA401B642800F213811C4B5B6F13F011
:104F6000020FF4D1236813F0040F00F08C80174B6C
:104F70001A6C42F080521A641B6C03F08053019348
:104F8000019B134A136843F480731360FBF786FA9E
:104F9000054605E0FBF782FA401B642800F2F28028
:104FA0000B4B1B6813F4807FF4D0084B1A6F22F070
:104FB00001021A671A6F22F004021A671A6F22F0B0
:104FC00001021A67FBF76AFA05460BE00038024057
:104FD00000700040FBF762FA401B41F288339842B0
:104FE00000F2D280714B1B6F13F0020FF2D16F4AA7
:104FF000136F23F001031367A368012B09D1134634
:10500000126F22F004021A671A6F42F001021A6747
:1050100014E0052B09D1654B1A6F42F004021A67A0
:105020001A6F42F001021A6708E0604B1A6F22F013
:1050300004021A671A6F22F001021A67A3688BB183
:10504000FBF72CFA054607E0FBF728FA401B41F274
:105050008833984200F29A80544B1B6F13F0020F72
:10506000F2D010E0FBF71AFA054607E0FBF716FA54
:10507000401B41F28833984200F28A804B4B1B6FF1
:1050800013F0020FF2D1A369002B00F08380474A8E
:10509000926802F00C02082A7ED0022B4BD1434AC0
:1050A000136823F080731360FBF7F8F9054604E0FA
:1050B000FBF7F4F9401B642870D83C4B1B6813F0D5
:1050C000007FF5D1216A636A47F6C07292FAA2F2B4
:1050D000B2FA82F293401943A36A5B085A1E4FF456
:1050E000403393FAA3F3B3FA83F302FA03F30B43C7
:1050F000E2691343E26A4FF0706191FAA1F1B1FAEB
:1051000081F18A40134343F00053284A53601368E7
:1051100043F080731360FBF7C1F9044604E0FBF72A
:10512000BDF9001B64283BD8204B1B6813F0007F9F
:10513000F5D0002037E01D4A136823F08073136018
:10514000FBF7ACF9044604E0FBF7A8F9001B642860
:1051500028D8164B1B6813F0007FF5D1002022E001
:10516000012020E003201EE003201CE003201AE0C1
:10517000012018E0032016E0032014E0032012E0D1
:10518000032010E003200EE003200CE003200AE0DF
:10519000032008E0002006E0012004E0032002E0F4
:1051A000032000E0032003B030BD00BF0038024000
:1051B00070B504460D468A4B1B6803F00F038B4203
:1051C0006ED2874A136823F00F030B4313601368F2
:1051D00003F00F03994240F0E780036813F0020FD9
:1051E00006D080498B6823F0F002836813438B60FC
:1051F000236813F0010F00F0BB806268012A05D11B
:10520000784B1B6813F4003F0ED1CFE0022A05D182
:10521000744B1B6813F0007F06D1C9E0714B1B680B
:1052200013F0020F00F0C6806E498B6823F0030371
:1052300013438B60FBF732F905466368012B0FD1EE
:1052400007E0FBF72BF9401B41F28833984200F24C
:10525000B380644B9B6803F00C03042BF1D187E00F
:10526000022B17D107E0FBF719F9401B41F28833F5
:10527000984200F2A3805B4B9B6803F00C03082B61
:10528000F1D175E0FBF70AF9401B41F288339842EF
:1052900000F29680534B9B6813F00C0FF2D167E03D
:1052A000036813F0020F06D04E498B6823F0F0021A
:1052B000836813438B60236813F0010F4DD062683D
:1052C000012A05D1474B1B6813F4003F0DD179E04B
:1052D000022A05D1434B1B6813F0007F05D173E010
:1052E000404B1B6813F0020F70D03E498B6823F0CF
:1052F000030313438B60FBF7D1F806466368012B69
:105300000ED106E0FBF7CAF8801B41F288339842C1
:105310005ED8344B9B6803F00C03042BF2D11CE0E5
:10532000022B15D106E0FBF7B9F8801B41F2883358
:1053300098424FD82B4B9B6803F00C03082BF2D1FB
:105340000BE0FBF7ABF8801B41F28833984243D85F
:10535000244B9B6813F00C0FF3D1214A136823F000
:105360000F032B431360136803F00F039D4235D1E5
:10537000236813F0040F06D01A498B6823F4E05217
:10538000E36813438B60236813F0080F07D0154AB6
:10539000936823F46043216943EAC10393600F20BB
:1053A000FBF74EF8002070BD012070BD012070BDDC
:1053B000012070BD012070BD032070BD032070BDB1
:1053C000032070BD012070BD012070BD012070BDA3
:1053D000032070BD032070BD032070BD012070BD8F
:1053E000003C024000380240244B9B6803F00C0351
:1053F000042B3FD0082B01D02148704710B41F4B1D
:10540000586800F03F005B6813F4800F10D01D4B0C
:10541000B3FBF0F0194B5A6847F6C0710A4091FA95
:10542000A1F3B3FA83F322FA03F303FB00F310E0D2
:10543000134BB3FBF0F0114B5A6847F6C07402EA05
:10544000040194FAA4F2B2FA82F221FA02F202FB07
:1054500000F30A4A506800F440324FF4403090FAAA
:10546000A0F0B0FA80F022FA00F001304000B3FB67
:10547000F0F001E00348704710BC7047003802406C
:105480000024F40040787D0108B5FFF7ADFF084B1C
:105490009B6803F0F002F02393FAA3F3B3FA83F3CB
:1054A00022FA03F3034AD35CD840034B186008BDCB
:1054B00000380240007C00080C000020F0B583B0EA
:1054C0000446036813F0010F0CD04C4B9A6822F489
:1054D00000029A609968426B0A439A60436B1BB161
:1054E000002502E0002500E00125236813F4002FC9
:1054F00010D04249D1F88C3023F44012E36B1343AF
:10550000C1F88C30E36BB3F5801F00D101251BB1CE
:10551000002602E0002600E00126236813F4801F25
:105520000FD03649D1F88C3023F44002236C13435A
:10553000C1F88C30236CB3F5800F00D1012503B97D
:105540000126236813F0807F00D0012513F0200F7F
:1055500066D02A4B1A6F236B534013F4407F5FD001
:10556000264B1A6C42F080521A641B6C03F0805375
:105570000193019B224A136843F480731360FAF786
:105580008DFF074605E0FAF789FFC01B642800F28B
:10559000C2821B4B1B6813F4807FF4D0174B196F2A
:1055A00021F440701A6F42F480321A671A6F22F4A5
:1055B00080321A67186711F0020F10D0FAF76EFFE9
:1055C000074607E0FAF76AFFC01B41F288339842AA
:1055D00000F2A382094B1B6F13F0020FF2D0236B72
:1055E00003F44072B2F5407F0ED10448826822F481
:1055F000F811044A1A400A4382600AE00038024067
:1056000000700040FFFCFF0F824A936823F4F813F8
:105610009360804A116F236BC3F30B030B43136733
:10562000236813F0100F0CD07A4BD3F88C2022F0A3
:105630008072C3F88C20D3F88C10A26B0A43C3F895
:105640008C20236813F4804F08D07249D1F8903031
:1056500023F44032636E1343C1F89030236813F48F
:10566000004F08D06B49D1F8903023F44022A36E4C
:105670001343C1F89030236813F4803F08D0654984
:10568000D1F8903023F44012E36E1343C1F8903008
:10569000236813F4003F08D05E49D1F8903023F41A
:1056A0004002236F1343C1F89030236813F0400F7A
:1056B00008D05849D1F8903023F00302636C1343AB
:1056C000C1F89030236813F0800F08D05149D1F809
:1056D000903023F00C02A36C1343C1F89030236880
:1056E00013F4807F08D04B49D1F8903023F030027A
:1056F000E36C1343C1F89030236813F4007F08D0A3
:105700004449D1F8903023F0C002236D1343C1F80F
:105710009030236813F4806F08D03E49D1F8903060
:1057200023F44072636D1343C1F89030236813F47F
:10573000006F08D03749D1F8903023F44062A36D50
:105740001343C1F89030236813F4805F08D03149C7
:10575000D1F8903023F44052E36D1343C1F89030F8
:10576000236813F4005F08D02A49D1F8903023F45D
:105770004042236E1343C1F89030236813F4800F26
:1057800008D02449D1F8903023F08062A36F1343EE
:10579000C1F89030236813F4001F0DD01D49D1F8D3
:1057A000903023F00062E36F1343C1F89030E36F51
:1057B000B3F1006F00D10126236813F0080F00D069
:1057C000012613F4802F08D01249D1F8903023F02D
:1057D0004072636F1343C1F89030236813F4000FD5
:1057E00009D00C49D1F8903023F08052D4F88030A1
:1057F0001343C1F8903025B92368B3F1007F40F01E
:10580000CA80044A136823F080631360FAF746FEE7
:10581000054607E000380240FAF740FE401B6428C6
:1058200000F27D81C34B1B6813F0006FF4D1236835
:1058300013F0010F25D0636B1BBBBE48D0F884303A
:1058400003F440334FF4403292FAA2F2B2FA82F2F9
:1058500023FA02F2D0F8843003F070634FF07061E5
:1058600091FAA1F1B1FA81F123FA01F1636812040E
:1058700042EA831343EA0163A26843EA0273C0F871
:105880008430236813F4002F03D0E26BB2F5801F3D
:1058900006D013F4801F30D0236CB3F5800F2CD1C9
:1058A000A449D1F8843003F440334FF4403292FAE3
:1058B000A2F2B2FA82F223FA02F2D1F8843003F0B3
:1058C000E0434FF0E04090FAA0F0B0FA80F023FA05
:1058D00000F06368120442EA8312E36842EA036359
:1058E00043EA0073C1F88430D1F88C3023F01F02F2
:1058F000636A013B1343C1F88C30236813F0807F47
:1059000023D08C4DD5F8840000F070624FF07063A6
:1059100093FAA3F3B3FA83F322FA03F0D5F88410D1
:1059200001F0E0424FF0E04393FAA3F3B3FA83F3BC
:1059300022FA03F1676823691A0442EA871242EAED
:10594000006343EA0173C5F88430236813F0007FD5
:105950000DD0626823691B0443EA8213E26843EABC
:105960000263A26843EA0273724AC2F88430714A41
:10597000136843F080631360FAF790FD054605E075
:10598000FAF78CFD401B642800F2CB80694B1B6842
:1059900013F0006FF4D0002E00F0C580654A136844
:1059A00023F080531360FAF779FD054605E0FAF716
:1059B00075FD401B642800F2B8805E4B1B6813F035
:1059C000005FF4D1236813F4002F01D0E26B22B101
:1059D00013F4801F2FD0236C6BBB5649D1F888304D
:1059E00003F440334FF4403292FAA2F2B2FA82F258
:1059F00023FA02F2D1F8883003F0E0434FF0E040A0
:105A000090FAA0F0B0FA80F023FA00F06369120473
:105A100042EA8312A36942EA036343EA0073C1F8CE
:105A20008830D1F88C3023F4F853A26A013A43EA63
:105A30000223C1F88C30236813F4001F27D0E36FD2
:105A4000B3F1006F23D13B4DD5F8883003F070637C
:105A50004FF0706090FAA0F0B0FA80F023FA00F0F6
:105A6000D5F8882002F0E0424FF0E04393FAA3F328
:105A7000B3FA83F322FA03F16669236A1A0442EA4D
:105A8000861242EA006343EA0173C5F8883023684E
:105A900013F0080F2AD02749D1F8883003F070633B
:105AA0004FF0706090FAA0F0B0FA80F023FA00F0A6
:105AB000D1F8882002F440324FF4403393FAA3F334
:105AC000B3FA83F3DA406369120442EA831343EAC8
:105AD0000063E26943EA0273C1F88830D1F88C3080
